:100000000C9434000C9446000C9446000C9446006A
:100010000C9446000C9446000C9446000C94460048
:100020000C9446000C9446000C9446000C94590025
:100030000C9446000C9446000C9446000C94460028
:100040000C9446000C9446000C9446000C94460018
:100050000C9446000C9446000C9446000C94460008
:100060000C9446000C94460011241FBECFEFD8E03C
:10007000DEBFCDBF21E0A0E0B1E001C01D92A03005
:10008000B207E1F70E94A3000C9471020C940000E7
:10009000181619066CF420E030E0EFE9FFE0319724
:1000A000F1F700C000002F5F3F4F82179307A9F7B9
:1000B00008951F920F920FB60F9211248F939F9362
:1000C00095B181E0892785B99F918F910F900FBEDF
:1000D0000F901F901895CF93DF93EB019C01990F20
:1000E000440B550B60E074E284EF90E00E94300214
:1000F000BA01A901545061097109DB01CA017723D2
:1001000024F48150984FAF4FBF4FBC01CD01052E55
:100110005BE095958795779567955A95D1F7502D22
:100120000E947F010E94E3010E944E0170938900AA
:10013000609388007894CE010E944800F894289833
:10014000DF91CF9108958FEF84B985B91092850022
:100150001092840088E09DE390938900809388004A
:100160008DE08093810082E080936F00789468EE48
:1001700073E081E090E00E946B002FEF83ED90E34D
:10018000215080409040E1F700C0000068EE73E02D
:1001900082E090E00E946B002FEF83ED90E321500E
:1001A00080409040E1F700C0000068EE73E083E01B
:1001B00090E00E946B002FEF83ED90E32150804090
:1001C0009040E1F700C0000068EE73E084E090E04A
:1001D0000E946B002FEF83ED90E321508040904010
:1001E000E1F700C0000068EE73E085E090E00E9457
:1001F0006B002FEF83ED90E3215080409040E1F7BA
:1002000000C0000068EE73E086E090E00E946B00A2
:100210002FEF83ED90E3215080409040E1F700C044
:10022000000068EE73E087E090E00E946B002FEF23
:1002300083ED90E3215080409040E1F700C0000042
:1002400068EE73E088E090E00E946B002FEF83ED92
:1002500090E3215080409040E1F700C0000068EE3C
:1002600073E089E090E00E946B002FEF83ED90E354
:10027000215080409040E1F700C0000068EE73E03C
:100280008AE090E00E946B002FEF83ED90E3215015
:1002900080409040E1F700C0000069CF0E94C20199
:1002A00088F09F5798F0B92F9927B751B0F0E1F037
:1002B000660F771F881F991F1AF0BA95C9F714C0E7
:1002C000B13091F00E94DC01B1E008950C94DC01A2
:1002D000672F782F8827B85F39F0B93FCCF3869520
:1002E00077956795B395D9F73EF49095809570957D
:1002F00061957F4F8F4F9F4F0895E89409C097FBFA
:100300003EF490958095709561957F4F8F4F9F4FEC
:100310009923A9F0F92F96E9BB279395F695879530
:1003200077956795B795F111F8CFFAF4BB0F11F4F3
:1003300060FF1BC06F5F7F4F8F4F9F4F16C088239A
:1003400011F096E911C0772321F09EE8872F762FD0
:1003500005C0662371F096E8862F70E060E02AF011
:100360009A95660F771F881FDAF7880F96958795FD
:1003700097F9089557FD9058440F551F59F05F3F66
:1003800071F04795880F97FB991F61F09F3F79F0B7
:1003900087950895121613061406551FF2CF469539
:1003A000F1DF08C0161617061806991FF1CF8695BB
:1003B0007105610508940895E894BB27662777279F
:1003C000CB0197F908950E94C201E8F09E37E8F04A
:1003D0009639B8F49E3848F4672F782F8827985FAD
:1003E000F9CF86957795679593959539D0F3B62F84
:1003F000B1706B0F711D811D20F4879577956795FE
:1004000093950C9407020C9422020C94DD0188232E
:1004100071F4772321F09850872B762F07C066233D
:1004200011F499270DC09051862B70E060E02AF0FE
:100430009A95660F771F881FDAF7880F969587952C
:1004400097F908959F3F31F0915020F48795779563
:100450006795B795880F911D9695879597F908959B
:10046000052E97FB1EF400940E94470257FD07D00B
:100470000E944F0207FC03D04EF40C9447025095A3
:100480004095309521953F4F4F4F5F4F0895909580
:100490008095709561957F4F8F4F9F4F0895A1E292
:1004A0001A2EAA1BBB1BFD010DC0AA1FBB1FEE1FEE
:1004B000FF1FA217B307E407F50720F0A21BB30B39
:1004C000E40BF50B661F771F881F991F1A9469F7B5
:1004D00060957095809590959B01AC01BD01CF0111
:0604E0000895F894FFCF1F
:00000001FF
